:020000040040BA
:100000000080002061614000A0624000A0624000CA
:10001000A0624000A0624000A0624000A0624000D8
:10002000A0624000A0624000A0624000C1624000A7
:10003000A0624000A0624000A0624000A1634000B6
:10004000A0624000A0624000A0624000A0624000A8
:10005000A0624000A0624000A0624000A062400098
:100060002172400041724000A0624000A062400046
:10007000A0624000A0624000A0624000A062400078
:10008000A0624000A0624000A0624000A062400068
:10009000A0624000A0624000A0624000A062400058
:1000A000A0624000A0624000A0624000A062400048
:1000B000A0624000A0624000A0624000A062400038
:1000C000A0624000A0624000A0624000A062400028
:1000D00010B582B006F0DCFD06F0AAF948F6300053
:1000E0000521C0F2400007F0F3F80020C4F20E0032
:1000F00007F09EFC41F21010C2F2000007F058FD1C
:10010000002441F2181048F2B1230094C0F24003D9
:100110004FF42C717F22C2F2000006F059FB41F22D
:10012000200048F281230094C0F24003F0214022D5
:10013000C2F2000006F04CFB204602B010BD00BF2A
:1001400000F05EB8000000000000000000000000A9
:100150002DE9F0478AB004460D4600F051F940F60B
:10016000000AC2F2000A9AF90030013306460F462F
:100170000FD02046294600F0BBFB50B14FF00008DD
:100180004FF000092046294642464B4601F010F840
:1001900020B9304639460AB0BDE8F0879AF80060C9
:1001A00048F67003C0F24003012201930023CDE919
:1001B0000445CDE902450092089366B9CDE9068968
:1001C000684600F0BDFB80B1089B9BB9DDE90601E4
:1001D0000AB0BDE8F0874046494642464B4600F02B
:1001E00099FE022ECDE90601EAD102F0A1FA2123FF
:1001F0000360E9E702F09CFA089B0360E6E700BFB2
:100200002DE9F047C2F1000949EA02094FF0000C5C
:1002100023F00048C7F6F07C48EAD97982B0E1457E
:1002200014461D46CDE900010F464ED8C0F1000A24
:1002300021F000494AEA000A49EADA7AE24544D85C
:1002400003F1404C0CF5801C5CEA020C53D04FEAE1
:10025000A37A0AF0020A4AEAD17A59EA00013DD0AB
:1002600058EA040141D00021C7F6F071884556D004
:100270000021C7F6F071894537D0C8EB09084FEA6D
:100280002858B8F13C0F46DC18F13C0FACBF4FF0DA
:1002900000084FF0010818EAD5781CBF00200021A3
:1002A00069D0BAF1010F63D0BAF1020F53D0BAF19D
:1002B000000F10D040A3D3E9002300F04DFB40A372
:1002C000D3E9002300F048FB05E010461946DDE9BC
:1002D000002300F043FB02B0BDE8F087BAF1030F42
:1002E000BED8DFE80AF00D0D1410002F2FDB36A169
:1002F000D1E90001EFE702B0BDE8F04700F040B9F6
:10030000DDE90001E7E732A1D1E90001E3E72CA133
:10031000D1E90001DFE72CA1D1E90001C1E7C14526
:1003200032D0BAF1030FA3D801A151F82AF000BFCF
:1003300049034000410340000F0340000703400011
:1003400000204FF00041C6E700200021C3E722A1B2
:10035000D1E90001BFE718A3D3E9002300F0FCFABC
:1003600002460B4616A1D1E9000100F0F5FAB2E70A
:1003700001F10041AFE7DDE9000100F0CBFD00F045
:10038000AFFA00F0FDF88CE7BAF1030FADD8DFE863
:100390000AF006020E0A12A1D1E900019BE712A1A0
:1003A000D1E9000197E712A1D1E9000193E712A179
:1003B000D1E900018FE700BF075C143326A6A13CFA
:1003C000182D4454FB210940182D4454FB21F93FBA
:1003D000182D4454FB2109C0182D4454FB21F9BFAA
:1003E000182D4454FB21E9BF182D4454FB21E93F4B
:1003F000D221337F7CD902C0D221337F7CD9024005
:1004000021F0004C02462DE9F8434FEA1C5C4FF006
:1004100000080646C7F6F0784FEA0C5CC4450F4664
:100420000B4600F09080002971DD0F157AD0A7F2FD
:10043000FF37C3F31303F90743F4801342BFD10F0F
:10044000520001EB43034FF0000CD10F7F1001EB82
:1004500043035200604616244FF400114518D60F8E
:100460009D424FEA4202DEBFC5EB030368188C448D
:10047000013C06EB43034FEA5101EFD12026A04691
:100480004FF0004112E081461B1A954288BF03F1EC
:10049000FF33521B0C444846013E4FEAD2754FEAE7
:1004A000510105EB43034FEA420215D0984201EB9C
:1004B000080503DB954298BF8342EDD105F0004962
:1004C00005EB0108B9F1004FDDD1B8F1000FA8BF6D
:1004D00000F10109D8DAD6E7134307D0631C08BF3F
:1004E0000CF1010C03D004F001031C4466084FEA30
:1004F0006C031CF0010F03F17F5318BF46F0004658
:1005000003F50013304603EB0751BDE8F88321F0F3
:100510000043034321D031BB0F46D30A153F520598
:10052000002BFAD013F4801119D15B000131D802ED
:10053000FBD5C1F10104C1F1200022FA00F02744EB
:1005400003438A4073E702460B4600F0B9FB32468C
:100550003B4600F003FABDE8F883BDE8F8832020AD
:1005600001240021E9E702460B4600F0F5F90246B6
:100570000B4600F0CFFCBDE8F88300BF0000000090
:100580004FF6FF732DE9F04FC4F20F4321F00048FE
:1005900083B0984583468A460F4623DD0021C7F67F
:1005A000F071884500F3CB8014BF0023012300289D
:1005B0000CBF002203F00102002A40F0C08042F28A
:1005C000FB1A42F6185B5346CBF6F97AC3F6F97379
:1005D000C5F2444B002FC8BF9A465846514603B057
:1005E000BDE8F08F4FF6FF73C3F6DB73984500F359
:1005F000C6804FF6FF73C3F61F63984540F3AC8087
:100600004FF0FF3C5A46534658465146CDF804C079
:1006100000F056FB02460B468046894600F050FB30
:1006200097A3D3E9002304460D4600F049FB96A3A7
:10063000D3E9002300F092F922462B4600F040FB5C
:1006400093A3D3E9002300F089F922462B4600F05A
:1006500037FB91A3D3E9002300F080F922462B4613
:1006600000F02EFB8EA3D3E9002300F077F9224699
:100670002B4600F025FB8CA3D3E9002300F06EF994
:1006800042464B4600F01CFB89A3D3E90023804679
:1006900089462046294600F013FB87A3D3E90023AF
:1006A00000F05AF922462B4600F00AFB84A3D3E956
:1006B000002300F051F922462B4600F001FB82A3F3
:1006C000D3E9002300F048F922462B4600F0F8FA5F
:1006D0007FA3D3E9002300F03FF922462B4600F028
:1006E000EFFADDF804C0BCF1FF3F02460B466CD0C8
:1006F00048F260444046C0F24004494604EBCC0452
:1007000000F02CF95A46534600F0DAFAD4E90823EF
:1007100000F022F95A46534600F01EF902460B46F5
:10072000D4E9000100F018F9002F8A468346B8BFCB
:1007300001F1004A5846514603B0BDE8F08F5846D3
:1007400051465A46534600F009F983468A465846B0
:10075000514603B0BDE8F08F5FA3D3E9002300F05A
:10076000FDF800230022C3F6F07300F03FFD0028DF
:100770003FF446AF5846514603B0BDE8F08F00F055
:10078000AFF84FF6FF73C3F6F273984504460D4673
:100790002CDC4FF6FF73C3F6E57398455EDC02462A
:1007A0000B464FF0000CCDF804C000F0D7F8002342
:1007B0000022C3F6F07300F0CFF800224FF0804320
:1007C00080468946204629462EE04046494600F0AC
:1007D000C5F85A46534600F073FA02460B4658468F
:1007E000514600F0B9F883468A46B0E747F6FF73F2
:1007F000C4F20303984524DC00230022C3F6F873F7
:100800004FF0020CCDF804C000F0A6F8002300223F
:10081000C3F6F873804689462046294600F050FA10
:1008200000230022C3F6F07300F098F802460B464E
:100830004046494600F06EFBDDF804C083468A4618
:10084000E0E60B4600210246CBF6F071002000F0F6
:1008500061FB4FF0030C83468A46D3E60023002257
:10086000C3F6F0734FF0010CCDF804C000F074F83B
:100870008046894620462946D2E700BFAFF3008074
:1008800011DA22E33AAD903FEB0D76244B7BA93F82
:10089000513DD0A0660DB13F6E204CC5CD45B73F50
:1008A000FF8300922449C23F0D5555555555D53FFC
:1008B0002F6C6A2C44B4A2BF9AFDDE522DDEAD3FF0
:1008C0006D9A74AFF2B0B33F711623FEC671BC3F90
:1008D000C4EB98999999C93F9C7500883CE4377E90
:1008E00021F00041704700BF000000000000000040
:1008F00050EA010301D102207047D0F1010338BF53
:100900000023B1F1004F08BF0028F4D021F00041CE
:100910004FF6FF72A1F58010C7F6DF72904201D842
:1009200004207047B1F5801F01D2032070470020DA
:10093000C7F6F070814214BF002003F00100704739
:1009400000207047000000000000000000000000D0
:1009500081F0004102E000BF83F0004330B54FEA70
:1009600041044FEA430594EA050F08BF90EA020FDD
:100970001FBF54EA000C55EA020C7FEA645C7FEA70
:10098000655C00F0E2804FEA5454D4EB5555B8BF93
:100990006D420CDD2C4480EA020281EA030382EA04
:1009A000000083EA010180EA020281EA0303362D96
:1009B00088BF30BD11F0004F4FEA01314FF4801C69
:1009C0004CEA113102D0404261EB410113F0004F7B
:1009D0004FEA03334CEA133302D0524263EB430332
:1009E00094EA050F00F0A780A4F10104D5F1200ED0
:1009F0000DDB02FA0EFC22FA05F2801841F100012B
:100A000003FA0EF2801843FA05F359410EE0A5F1FE
:100A100020050EF1200E012A03FA0EFC28BF4CF02F
:100A2000020C43FA05F3C01851EBE37101F00045E5
:100A300007D54FF0000EDCF1000C7EEB00006EEBF2
:100A40000101B1F5801F1BD3B1F5001F0CD349087C
:100A50005FEA30004FEA3C0C04F101044FEA4452D3
:100A600012F5800F80F09A80BCF1004F08BF5FEA5A
:100A7000500C50F1000041EB045141EA050130BD3A
:100A80005FEA4C0C404141EB010111F4801FA4F1DD
:100A90000104E9D191F0000F04BF01460020B1FA32
:100AA00081F308BF2033A3F10B03B3F120020CDA6A
:100AB0000C3208DD02F1140CC2F10C0201FA0CF048
:100AC00021FA02F10CE002F11402D8BFC2F1200CAD
:100AD00001FA02F120FA0CFCDCBF41EA0C01904063
:100AE000E41AA2BF01EB0451294330BD6FEA0404AC
:100AF0001F3C1CDA0C340EDC04F11404C4F1200297
:100B000020FA04F001FA02F340EA030021FA04F3A8
:100B100045EA030130BDC4F10C04C4F1200220FAFF
:100B200002F001FA04F340EA0300294630BD21FA3D
:100B300004F0294630BD94F0000F83F4801306BF03
:100B400081F480110134013D4EE77FEA645C18BFF7
:100B50007FEA655C29D094EA050F08BF90EA020F8E
:100B600005D054EA000C04BF1946104630BD91EA86
:100B7000030F1EBF0021002030BD5FEA545C05D189
:100B80004000494128BF41F0004130BD14F58004C8
:100B90003CBF01F5801130BD01F0004545F0FE413C
:100BA00041F470014FF0000030BD7FEA645C1ABF71
:100BB000194610467FEA655C1CBF0B46024650EAA8
:100BC000013406BF52EA033591EA030F41F40021D4
:100BD00030BD00BF90F0000F04BF0021704730B55A
:100BE0004FF4806404F132044FF000054FF000012F
:100BF00050E700BF90F0000F04BF0021704730B5F0
:100C00004FF4806404F1320410F0004548BF4042C4
:100C10004FF000013EE700BF42004FEAE2014FEA19
:100C200031014FEA02701FBF12F07F4393F07F4FF4
:100C300081F06051704792F0000F14BF93F07F4F26
:100C4000704730B54FF4607401F0004521F0004169
:100C500020E700BF50EA010208BF704730B54FF0EF
:100C600000050AE050EA010208BF704730B511F0F4
:100C7000004502D5404261EB41014FF4806404F12C
:100C800032045FEA915C3FF4DCAE4FF003025FEAAE
:100C9000DC0C18BF03325FEADC0C18BF033202EB36
:100CA000DC02C2F1200300FA03FC20FA02F001FA90
:100CB00003FE40EA0E0021FA02F11444C1E600BF2F
:100CC00070B54FF0FF0C4CF4E06C1CEA11541DBFE2
:100CD0001CEA135594EA0C0F95EA0C0F00F0DEF8AD
:100CE0002C4481EA030621EA4C5123EA4C5350EA92
:100CF000013518BF52EA033541F4801143F48013E3
:100D000038D0A0FB02CE4FF00005E1FB02E506F073
:100D10000042E0FB03E54FF00006E1FB03569CF0C8
:100D2000000F18BF4EF0010EA4F1FF04B6F5007FCE
:100D300064F5407404D25FEA4E0E6D4146EB060640
:100D400042EAC62141EA55514FEAC52040EA5E50C9
:100D50004FEACE2EB4F1FD0C88BFBCF5E06F1ED873
:100D6000BEF1004F08BF5FEA500E50F1000041EBAA
:100D7000045170BD06F0004646EA010140EA020057
:100D800081EA0301B4EB5C04C2BFD4EB0C0541EA79
:100D9000045170BD41F480114FF0000E013C00F38E
:100DA000AB8014F1360FDEBF002001F0004170BDB2
:100DB000C4F10004203C35DA0C341BDC04F11404CB
:100DC000C4F1200500FA05F320FA04F001FA05F257
:100DD00040EA020001F0004221F0004110EBD37024
:100DE00021FA04F642EB06015EEA430E08BF20EA50
:100DF000D37070BDC4F10C04C4F1200500FA04F3F3
:100E000020FA05F001FA04F240EA020001F0004184
:100E100010EBD37041F100015EEA430E08BF20EAF7
:100E2000D37070BDC4F1200500FA05F24EEA020E3F
:100E300020FA04F301FA05F243EA020321FA04F06E
:100E400001F0004121FA04F220EA020000EBD37025
:100E50005EEA430E08BF20EAD37070BD94F0000F25
:100E60000FD101F00046400041EB010111F4801F59
:100E700008BF013CF7D041EA060195F0000F18BF0A
:100E8000704703F00046520043EB030313F4801F46
:100E900008BF013DF7D043EA0603704794EA0C0F00
:100EA0000CEA135518BF95EA0C0F0CD050EA410616
:100EB00018BF52EA4306D1D181EA030101F0004193
:100EC0004FF0000070BD50EA410606BF10461946BB
:100ED00052EA430619D094EA0C0F02D150EA0136C7
:100EE00013D195EA0C0F05D152EA03361CBF104608
:100EF00019460AD181EA030101F0004141F0FE41A7
:100F000041F470014FF0000070BD41F0FE4141F42A
:100F1000780170BD70B54FF0FF0C4CF4E06C1CEA2A
:100F200011541DBF1CEA135594EA0C0F95EA0C0FDF
:100F300000F0A7F8A4EB050481EA030E52EA03359A
:100F40004FEA013100F088804FEA03334FF08055BB
:100F500045EA131343EA12634FEA022245EA1115E8
:100F600045EA10654FEA00260EF000419D4208BF99
:100F7000964244F1FD0404F5407402D25B084FEA46
:100F80003202B61A65EB03055B084FEA32024FF4F2
:100F900080104FF4002CB6EB020E75EB030E22BF4F
:100FA000B61A754640EA0C005B084FEA3202B6EB0F
:100FB000020E75EB030E22BFB61A754640EA5C00BE
:100FC0005B084FEA3202B6EB020E75EB030E22BF4E
:100FD000B61A754640EA9C005B084FEA3202B6EB4F
:100FE000020E75EB030E22BFB61A754640EADC000E
:100FF00055EA060E18D04FEA051545EA16754FEA70
:1010000006164FEAC30343EA52734FEAC2025FEA8D
:101010001C1CC0D111F4801F0BD141EA00014FF01C
:1010200000004FF0004CB6E711F4801F04BF0143ED
:101030000020B4F1FD0C88BFBCF5E06F3FF6AFAE09
:10104000B5EB030C04BFB6EB020C5FEA500C50F199
:10105000000041EB045170BD0EF0004E4EEA11311C
:1010600014EB5C04C2BFD4EB0C0541EA045170BD23
:1010700041F480114FF0000E013C90E645EA060E67
:101080008DE60CEA135594EA0C0F08BF95EA0C0F95
:101090003FF43BAF94EA0C0F0AD150EA01347FF4DD
:1010A00034AF95EA0C0F7FF425AF104619462CE7B4
:1010B00095EA0C0F06D152EA03353FF4FDAE104617
:1010C000194622E750EA410618BF52EA43067FF468
:1010D000C5AE50EA41047FF40DAF52EA43057FF4F8
:1010E000EBAE12E70000000000000000000000006E
:1010F0004FF0FF3C06E000BF4FF0010C02E000BFE4
:101100004FF0010C4DF804CD4FEA410C7FEA6C5CC6
:101110004FEA430C18BF7FEA6C5C1BD001B050EA69
:10112000410C0CBF52EA430C91EA030F02BF90EA54
:10113000020F0020704710F1000F91EA030F58BF13
:10114000994208BF90422CBFD8176FEAE37040F075
:10115000010070474FEA410C7FEA6C5C02D150EA13
:10116000013C07D14FEA430C7FEA6C5CD6D152EACE
:10117000033CD3D05DF8040B704700BF8446104693
:1011800062468C461946634600E000BF01B5FFF792
:10119000B7FF002848BF10F1000F01BD4DF808ED62
:1011A000FFF7F4FF0CBF012000205DF808FB00BF33
:1011B0004DF808EDFFF7EAFF34BF012000205DF88D
:1011C00008FB00BF4DF808EDFFF7E0FF94BF0120DA
:1011D00000205DF808FB00BF4DF808EDFFF7CEFFDB
:1011E00094BF012000205DF808FB00BF4DF808ED1A
:1011F000FFF7C4FF34BF012000205DF808FB00BFEB
:101200004FEA4102B2F1E04324BFB3F5001CDCF128
:10121000FE5C0DD901F0004C4FEAC0024CEA507060
:10122000B2F1004F40EB830008BF20F0010070478F
:1012300011F0804F21D113F13872BCBF01F0004092
:10124000704741F480114FEA5252C2F11802C2F1C4
:10125000200C10FA0CF320FA02F018BF40F0010045
:101260004FEAC1234FEAD32303FA0CFC40EA0C00F7
:1012700023FA02F34FEA4303CCE77FEA625307D134
:1012800050EA01331EBF4FF0FE4040F4400070476B
:1012900001F0004040F0FE4040F40000704700BF05
:1012A00080F0004002E000BF81F0004142001FBF1B
:1012B0005FEA410392EA030F7FEA226C7FEA236C24
:1012C0006AD04FEA1262D2EB1363C1BFD218414019
:1012D00048404140B8BF5B42192B88BF704710F0AF
:1012E000004F40F4000020F07F4018BF404211F052
:1012F000004F41F4000121F07F4118BF494292EABA
:10130000030F3FD0A2F1010241FA03FC10EB0C00E5
:10131000C3F1200301FA03F100F0004302D5494272
:1013200060EB4000B0F5000F13D3B0F1807F06D31F
:1013300040084FEA310102F10102FE2A51D2B1F117
:10134000004F40EBC25008BF20F0010040EA03000C
:101350007047490040EB000010F4000FA2F10102B9
:10136000EDD1B0FA80FCACF1080CB2EB0C0200FA43
:101370000CF0AABF00EBC25052421843BCBFD04091
:101380001843704792F0000F81F4000106BF80F40B
:1013900000000132013BB5E74FEA41037FEA226CCE
:1013A00018BF7FEA236C21D092EA030F04D092F099
:1013B000000F08BF0846704790EA010F1CBF0020CD
:1013C000704712F07F4F04D1400028BF40F000402A
:1013D000704712F100723CBF00F50000704700F04A
:1013E000004343F0FE4040F4000070477FEA226271
:1013F00016BF08467FEA23630146420206BF5FEA42
:10140000412390EA010F40F4800070474FF0000341
:1014100004E000BF10F0004348BF40425FEA000C08
:1014200008BF704743F0964301464FF000001CE0B0
:1014300050EA010208BF70474FF000030AE000BF06
:1014400050EA010208BF704711F0004302D5404244
:1014500061EB41015FEA010C02BF844601460020B6
:1014600043F0B64308BFA3F18053A3F50003BCFAD1
:101470008CF2083AA3EBC25310DB01FA02FC63447E
:1014800000FA02FCC2F12002BCF1004F20FA02F285
:1014900043EB020008BF20F00100704702F1200278
:1014A00001FA02FCC2F1200250EA4C0021FA02F2D9
:1014B00043EB020008BF20EADC7070470000000028
:1014C0004FF0FF0C1CEAD0521EBF1CEAD15392EA27
:1014D0000C0F93EA0C0F6FD01A4480EA010C400203
:1014E00018BF5FEA41211ED04FF0006343EA50105D
:1014F00043EA5111A0FB01310CF00040B1F5000F9F
:101500003EBF490041EAD3715B0040EA010062F14D
:101510007F02FD2A1DD8B3F1004F40EBC25008BF37
:1015200020F00100704790F0000F0CF0004C08BF55
:1015300049024CEA502040EA51207F3AC2BFD2F122
:10154000FF0340EAC250704740F400004FF0000330
:10155000013A5DDC12F1190FDCBF00F0004070476A
:10156000C2F10002410021FA02F1C2F1200200FAA8
:1015700002FC5FEA310040F1000053EA4C0308BF6F
:1015800020EADC70704792F0000F00F0004C02BFC0
:10159000400010F4000F013AF9D040EA0C0093F03B
:1015A000000F01F0004C02BF490011F4000F013B95
:1015B000F9D041EA0C018FE70CEAD15392EA0C0F03
:1015C00018BF93EA0C0F0AD030F0004C18BF31F06E
:1015D000004CD8D180EA010000F00040704790F044
:1015E000000F17BF90F0004F084691F0000F91F0E8
:1015F000004F14D092EA0C0F01D142020FD193EAAE
:101600000C0F03D14B0218BF084608D180EA010035
:1016100000F0004040F0FE4040F40000704740F011
:10162000FE4040F4400070474FF0FF0C1CEAD052DF
:101630001EBF1CEAD15392EA0C0F93EA0C0F69D03B
:10164000A2EB030280EA010C49024FEA402037D0A6
:101650004FF0805343EA111143EA10130CF000409D
:101660008B4238BF5B0042F17D024FF4000C8B428D
:1016700024BF5B1A40EA0C00B3EB510F24BFA3EB6D
:10168000510340EA5C00B3EB910F24BFA3EB91033D
:1016900040EA9C00B3EBD10F24BFA3EBD10340EA97
:1016A000DC001B0118BF5FEA1C1CE0D1FD2A3FF6DD
:1016B00050AF8B4240EBC25008BF20F00100704792
:1016C0000CF0004C4CEA50207F32C2BFD2F1FF0335
:1016D00040EAC250704740F400004FF00003013A66
:1016E00037E792F0000F00F0004C02BF400010F40A
:1016F000000F013AF9D040EA0C0093F0000F01F01E
:10170000004C02BF490011F4000F013BF9D041EA3F
:101710000C0195E70CEAD15392EA0C0F08D1420272
:101720007FF47DAF93EA0C0F7FF470AF084676E745
:1017300093EA0C0F04D14B023FF44CAF08466EE71E
:1017400030F0004C18BF31F0004CCAD130F00042EC
:101750007FF45CAF31F000437FF43CAF5FE700BF44
:1017600003685A004CBF43F0004323F00043184481
:10177000704700BF2DE9F04706469046F1B101F1F0
:10178000FF390027CC4607EB0C0404EBD47464103B
:10179000E50071190846FFF7E3FFA145824605F110
:1017A0000800304412D0FFF7DBFFC24500F1FF30E4
:1017B00007D9BC4204F1FF3CE5D100210846BDE851
:1017C000F087404504F10107DDD3F7E7C245F0D8C3
:1017D000F4E700BF01280AD002280DD041F61D739E
:1017E000C0F2400300280CBF18460020704741F6A5
:1017F0002170C0F24000704741F62570C0F24000F1
:10180000704700BF40F20003C0F2000330B5044649
:1018100083B08D1E002B42D0284601A9AFF3008073
:10182000034643B301992A46FFF7A4FF014638B3A4
:10183000FFF796FF4B68A064012B16D0002B01F137
:101840000400BEBF0123E064236504DBFFF788FFCB
:1018500000232365E0640368002B16DBFFF780FF9D
:1018600000232061184603B030BD0523002218462E
:10187000226103B030BD23610923184603B030BD97
:1018800009232061184603B030BDC3F30360FFF79E
:10189000A1FF00280CBF092300232061E2E748F6DE
:1018A000702348F63010C0F24003C0F240001B1A0B
:1018B000DB100193B6E700BF036810B50446D807F4
:1018C00006D4990704F1480009D500F07DFC23688F
:1018D0005A0709D518070ED5D90613D510BD00F043
:1018E0006BFC23685A07F5D404F1D00000F074FCB7
:1018F00023681807F0D404F5A87000F075FC23687D
:10190000D906EBD404F5E870BDE8104000F0B0BC97
:1019100003680BB118447047184670470920704798
:10192000704700BFF8B504460D4608E02F6C012053
:10193000236921462A4667619847082808D120462E
:10194000296CFFF75FFF06460028EFD000F0C0FECD
:101950000728FBD13046296CFFF7E2FF281D00F075
:101960001FFC00BF2DE9F04701F1040E05461746A4
:10197000BEE80F00ADF5727D03AE02ACD5F80C8069
:101980004FF0000CD5F81890002F14BF0A27092734
:101990000FC6BEE80F000FC6BEE80F000FC69EE8D8
:1019A0000F0086E80F002846216CC4F800C0FFF73E
:1019B00029FF06468EB1A06B2A46009447F010011D
:1019C000CDF804902B4660640120C047002830D138
:1019D00030460DF5727DBDE8F087236C21464FF44B
:1019E000F0727AA86B6100F0D3FE2B6929467AAABF
:1019F00038469847889B00943946CDF804902A468B
:101A000063642B4682460120C04790B920467AA9DC
:101A10004FF4F07200F0BCFEBAF1080F06D1284670
:101A2000216CFFF7EFFE09270646C3E7BAF1070F5F
:101A300004D009200DF5727DBDE8F0873046216C99
:101A4000FFF76EFF03A800F0ABFB00BF406C7047D0
:101A5000CB6BF0B50E1D0B640F460446F9B00FCEEC
:101A600001AD4FF0FF3E0FC50FCE0FC50FCE0FC516
:101A700096E80F0085E80F00CDF800E006E0236946
:101A800021466A4698470828054608D120461099FD
:101A9000FFF7B8FE0028F2D0092079B0F0BD684603
:101AA000FFF70AFF062DF7D120463946FFF73AFF28
:101AB00030B4DD6BC1601946826100221D6430BC08
:101AC00050E700BF436970B50446C6680D460B6415
:101AD00026B10122FFF746FF00F0FAFD0369214617
:101AE00002202A469847072807D0082803D1204615
:101AF0002946FFF717FF00F0EBFD3046296CFFF792
:101B00000FFF281D00F04CFBC26810B42AB1CC6B4B
:101B100000220C645DF8044B24E75DF8044B97E762
:101B2000704700BF08B5836813B10146012098478C
:101B300008BD00BF10B404290FD8DFE801F0070387
:101B40000E03030001205DF8044B70470F2A98BF75
:101B5000002B0CBF0023012303D002205DF8044BAF
:101B6000704700EB820218465368019A5DF8044BF7
:101B70001360704710B584B00A4600210B4603ACD1
:101B80000094FFF7D7FF039804B010BD10B40429E8
:101B90000FD8DFE801F007030E03030001205DF812
:101BA000044B70470F2A98BF002B0CBF0023012362
:101BB00003D002205DF8044B7047019C00EB8202C9
:101BC000184621685DF8044B5160704730B585B008
:101BD00004AC0D46002144F8042D0B4600942A461F
:101BE000FFF7D4FF05B030BDD36BF0B5151D1364FE
:101BF00007460E46ADF50F7D0FCD17AC4FF0FF3EFB
:101C00000FC40FCD0FC40FCD0FC495E80F0084E8AB
:101C10000F00CDF858E010E016A8FFF7D7FF3146C7
:101C200016A8B847694616AA78B9049B08209847B1
:101C3000092818BF0528044608D026996846FFF7EA
:101C4000E1FD6A460C210028E6D0092416A8FFF71A
:101C500033FE20460DF50F7DF0BD00BF2DE9F04F9E
:101C60009046CA6C1D468BB00C46131D00F003074E
:101C7000126808930792002D40F08A8012028DF8B6
:101C80002550079203228DF82420022F226D08BFD1
:101C9000A36B12F001026ED100F0080004F15801AC
:101CA0000192C0B2029103901E68002E65D0022DF1
:101CB00040460ABF03F1080903F10409D3F804C040
:101CC0004FF00F011CBFB3F802C01E88A36C2CF0AC
:101CD000010A9A44FFF74EFF824588BF002006D8CC
:101CE00026F001039A4450452CBF002001200CF03F
:101CF000010C06F0010646EA4C06012E73D068D3AB
:101D0000022E40D1D9F8003023F0004B002F4ED1E5
:101D1000002855D0039A002A18BFBBF1000F4FD1FD
:101D2000BBF1000F1CD0BA46049709F104060595D3
:101D3000029F02E05D45AA4612D030460697FFF7A3
:101D4000E7FD002206AB0AF10105043601462046F4
:101D5000AFF300800028EDD0D345049F059D2DD121
:101D600040460D21FFF706FF069AC4F82890062387
:101D70006262206208E000220192022D4DDDFFF731
:101D8000CDFD00284FD0092318460BB0BDE8F08FD9
:101D9000022D3FF77AAF110C8DF8251012040226A0
:101DA000C9B207928DF8246003EB81036DE74046CA
:101DB0000D21266AFFF7DEFE864267D0D9F8003093
:101DC000002BB8BF09F104090BF1010309EB8303F0
:101DD0006AE7002F0CBF002000F00100002873D13B
:101DE00009F1040360E72FBBA0B199E80C009E1C29
:101DF0004FEAD272C7D002990133069159D009F146
:101E00000400FFF785FD06AB01462046AFF30080D6
:101E1000002872D109F1080346E7404607A900F0FF
:101E2000C1FA0028AFD1019BEBB9082318460BB0CB
:101E3000BDE8F08F40460D21266AFFF79BFE8642E3
:101E4000E8D1A36A9945E5D14846FFF789FC0F21FF
:101E500002464046FFF7BAFE404622460021FFF701
:101E6000B5FE072390E70F214046FFF783FE0E21C2
:101E700002464046FFF7AAFE40F2000240460F210C
:101E8000C0F20002FFF7A2FE07237DE7A36A99458F
:101E900094D104220023C4F828B0E36209EB0203C2
:101EA00022636363D9F80030002B21DB012101910B
:101EB0008AE740460D21FFF75DFE4E462062069BF5
:101EC0006362A66206235FE7484609F10406FFF74E
:101ED00047FCA66305462046AFF3008000283FF488
:101EE00052AF40462A460F21FFF770FE07234BE70B
:101EF0000BF1010009EB8000A7E703460D214046E6
:101F00000093FFF737FE009B4E46022B2062D6D18E
:101F1000069A234643F82C2F6362D2E700239DE6FE
:101F200001239BE6022399E62DE9F0410446C4B063
:101F3000042907D8DFE801F0B12C06030A00032BBF
:101F400000F0C580022044B0BDE8F081102A98BF9F
:101F5000002BF7D12368DF0600F1E08022AE01926A
:101F6000304600F08FF9A56B019A0023012000FA9A
:101F700003F111421EBF2968043546F823100133CE
:101F8000042BF4D13046A56300F072F90020DAE7A3
:101F900003F0FB010129D5D1150C96B27219012B62
:101FA00014BF202110219142CCD3B3F1010CDCF1FC
:101FB000000757EB0C070F2D94BF002101210F42A2
:101FC000C0D1B04621B9102A40F2CA80A2F110084F
:101FD000B8F1000F18BF052BB4D10F2D0FD8226810
:101FE000D0070CD5052B22F001012046216000F01E
:101FF000CC8022F0030240F8482B00F0E1F8B8F161
:10200000000F03D02368590700F19A80002F40F099
:10201000B5800F2D40F28C80B8F1000F40F0A88001
:102020003346A66B002B314610DD22AA4FEA430C43
:1020300002EBC5000CF1FF31801B331F53F8042F56
:102040000139C2504A1CF9D106EB8C01B8F1000FDE
:1020500016D0102D2CBF2846102044AA4FEA480C59
:102060000E4602EBC0000CF1FF33A0F5C47056F829
:10207000042B013B40F8042B5A1CF8D101EB8C01D6
:10208000002F6FD10F2DA16356D9B8F1000F02D0E8
:1020900002A800F0A1F8002055E7002B7FF452AF12
:1020A000A56B97B2012606FA03F104EB83003942CF
:1020B00003F101031EBF296804354160102BF2D1E2
:1020C00012F4005008BFA5633FF43DAFE3E7150CE1
:1020D00097B27B19102B3FF635AF2368180737D41A
:1020E00022AE7F00304600F0A1F8D4F838E006EBCD
:1020F000C5007B1E72465FB1CEEB0000AEF104025C
:1021000052F8041F013B8150591CF9D10EEB870294
:102110003046A26300F068F8002014E723F01003B3
:1021200004F5E8702360019200F0ACF8019A15E71D
:1021300022A800F04DF86FE722A800F045F8A4E7C8
:10214000204623F0040340F8D03B00F049F85DE757
:1021500023F0080304F5A870236000F067F8BFE7D8
:1021600088463AE7043122A8A16300F025F892E7F7
:1021700002A800F035F8C5F1100352E722A800F0DC
:102180001FF8B8F1000FF6D14AE741F0020140F81C
:10219000481B00F01DF832E70000000000000000BE
:1021A00000F1340191E838009C46A6464CF8045DE5
:1021B00090E8FF0FE54600BD90EC210B704700BF93
:1021C00080EC210B704700BF90EC200B704700BFE4
:1021D00080EC200B704700BFD0EC200B704700BF95
:1021E000C0EC200B704700BFF0EC0201F0EC0211D4
:1021F000F0EC0221F0EC0231F0EC0241F0EC025183
:10220000F0EC0261F0EC0271F0EC0281F0EC029172
:10221000F0EC02A1F0EC02B1F0EC02C1F0EC02D162
:10222000F0EC02E1F0EC02F1704700BFE0EC0201DB
:10223000E0EC0211E0EC0221E0EC0231E0EC0241C2
:10224000E0EC0251E0EC0261E0EC0271E0EC0281B2
:10225000E0EC0291E0EC02A1E0EC02B1E0EC02C1A2
:10226000E0EC02D1E0EC02E1E0EC02F1704700BFEB
:10227000B0FC0181B0FC0191B0FC01A1B0FC01B146
:10228000704700BFA0FC0181A0FC0191A0FC01A14E
:10229000A0FC01B1704700BFEC4600B52DE900502D
:1022A0002DE9FF1F4FF000032DE90C0001A9FFF7F6
:1022B000CFFBDDF840E012B0704700BFEC4600B540
:1022C0002DE900502DE9FF1F4FF000032DE90C0010
:1022D00001A9FFF7F7FBDDF840E012B0704700BF3F
:1022E000EC4600B52DE900502DE9FF1F4FF000032B
:1022F0002DE90C0001A9FFF707FCDDF840E012B062
:10230000704700BFEC4600B52DE900502DE9FF1FD6
:102310004FF000032DE90C0001ABFFF7C9FBDDF81E
:1023200040E012B0704700BFEC4600B52DE9005008
:102330002DE9FF1F4FF000032DE90C0001AAFFF764
:1023400053FCDDF840E012B0704700BF0000000011
:10235000027A03461AB9427A42B9B020704700683F
:10236000013A1A720202000E1A6070474168013A7F
:1023700042720322081D586008681A720202000E99
:102380001A60704700B585B0002103AA0B46009281
:102390000C22FFF7CFFB039805B05DF804FB00BFEC
:1023A000F0E700BF2DE9F041064684B00D46002756
:1023B0002846FFF7CDFFB028044600F0BB8020F090
:1023C0007F0212F0FF0120D000F0F002802A75D0C9
:1023D000902A37D0A02A43D0B02A57D0C02A00F084
:1023E000858000F0F803D02B0BD100F00704012109
:1023F000621C304642F400220523FFF795FD0028B9
:10240000D6D0092004B0BDE8F0814FEA800803AAC5
:102410000B46009230460D22FFF78CFB039B5FFAC0
:1024200088F8600608F104084CBFC8EB0303434476
:102430000393002103AB304600930D220B46FFF7B8
:10244000A5FBB5E700F00D030D2BDAD0002103AAA0
:102450000B46009200F00F023046FFF76BFBE8E7F7
:102460004FF47F63C24302F00702010743FA02F20E
:102470004FF0000102EA0302304648BF42F48042B6
:102480000B46FFF751FD0028BBD191E7B12866D07C
:10249000B22877D0B32800F0A18000F0FC03B42B61
:1024A000AFD000F0070201210A440B4642F400229B
:1024B0003046FFF739FD0028A3D179E728462402EA
:1024C000FFF746FF2043B0F5004F9AD004014FF6C6
:1024D000F072002122400B463046FFF725FD002810
:1024E0008FD114F4004F18BF012761E7C62800F010
:1024F0008180C72800F0888000F0F803C02B00F02E
:102500009680C82800F0A180C9287FF47AAF2846B9
:10251000FFF71EFF012100F00F0300F0F00201336E
:10252000304643EA02320523FFF7FEFC00287FF421
:1025300068AF3DE70020002F7FF464AF03AC39465D
:102540000E223B4630460094FFF7F4FA00943046E2
:1025500039460F223B46FFF719FB384652E728461B
:10256000FFF7F6FE024600283FF44BAF10F0F001F3
:102570007FF447AF0B463046FFF7D6FC00287FF4C8
:1025800040AF15E7002103AA0B46009230460D220A
:10259000FFF7D0FA2846FFF7DBFE022402060BD530
:1025A00000F07F02039B2846A240073413440393A4
:1025B000FFF7CEFE0306F3D4039B00F07F0000215B
:1025C00003AA03F5017E009200FA04F40B4630469C
:1025D0000D2274440394FFF7D9FAE9E62846FFF781
:1025E000B7FE012100F00F0300F0F002013343EACF
:1025F0000232BFE72846FFF7ABFE032100F00F03CE
:1026000000F0F0020133F2E72846FFF7A1FE024690
:1026100000283FF4F6AE10F0F0037FF4F2AE30463F
:102620000421FFF781FC00287FF4EBAEC0E600F048
:102630000F02032101320B4642F420223046FFF7FD
:1026400073FC00287FF4DDAEB2E62846FFF780FE7B
:10265000012100F0F00200F00F0310320133304688
:1026600043EA02320523FFF75FFC00287FF4C9AE7E
:102670009EE600BFC36C084630B585B05A6803F1CA
:10268000080403258DF80C50DB7901A9120202948D
:1026900001928DF80D30FFF785FE05B030BD00BF0B
:1026A00008B5FFF77DFE806C08BD00BF08B5FFF7D9
:1026B00077FEC36CDA7903EB8200083008BD00BFF7
:1026C00008B500F005F800BF08B500F001F800BF3C
:1026D00008B5062000F090F9012005F059FA00BF76
:1026E00040F604040E46C2F20004054600B585B06B
:1026F0002168C86882B148F68004C0F2400448F6F8
:1027000090010292C0F240011A4600962B460194B5
:1027100000F026F8FFF7DCFF48F68C04C0F2400416
:102720002246ECE708B513460022FFF7D9FF00BFA9
:1027300040F60403C2F2000318687047000000006E
:102740000CB410B582B004AC54F8042B23460194A9
:1027500000F0D6F902B0BDE8104002B0704700BFEB
:102760000EB440F6040310B583B005ACC2F200030A
:10277000014654F8042B18682346019400F0C0F970
:1027800003B0BDE8104003B0704700BF0000000078
:102790000F2AF0B445D940EA01039B0745D1A2F1C5
:1027A00010070C4603463F0900EB07161036256854
:1027B0001033103443F8105C54F80C5C43F80C5C94
:1027C00054F8085C43F8085C54F8045C43F8045C73
:1027D000B342ECD17B1C02F00F0CBCF1030F4FEAAB
:1027E00003131944034422D90E461D46644656F885
:1027F000047B043C032C45F8047BF8D8ACF10404BA
:1028000002F0030224F0030404342344214432B1CF
:102810000A4411F8014B914203F8014BF9D1F0BC85
:1028200070470346002AF3D1F9E70346F0E7624612
:10283000002AEDD1F3E700BF000000000000000017
:102840008307F0B448D0541E002A43D0CDB20346CB
:1028500002E0002C3ED0144603F8015B13F0030F96
:1028600004F1FF32F5D1032C2DD9CDB20F2C45EA5E
:10287000052545EA054518D9A4F1100703F110060E
:102880001A463F0906EB07161560103242F80C5C39
:1028900042F8085C42F8045CB242F5D104F00F043F
:1028A0000137032C03EB07130DD91E462246043AC9
:1028B00046F8045B032AFAD8221F04F0030422F02E
:1028C0000302043213442CB1C9B21C4403F8011BA7
:1028D000A342FBD1F0BC704714460346C3E700BFD8
:1028E00038B50446456C0DB1002038BD802101F09B
:1028F00007FF606450B12B460246294600E0626C37
:10290000D1500433802BFAD1002038BD4FF0FF3076
:1029100038BD00BF1F2910B5044682B007D8436CEC
:102920005BB153F8210043F8212002B010BD1623FB
:102930004FF0FF30236002B010BD01910092FFF70D
:10294000CFFF0199009A08B9636CEAE74FF0FF30B6
:10295000EBE700BF1F2938B50C4605461FD8426C6F
:102960009AB152F8213083B1012B0CD0591C06D0FA
:102970000025204642F824509847284638BD1623A3
:1029800001202B6038BD002038BD284600F06CF8CF
:10299000224601462846BDE8384000F051B81623CB
:1029A0004FF0FF302B6038BD1F2910B5044682B0B0
:1029B0001ED8436CABB153F8212003EB810372B1F5
:1029C000501C08BF022008D0012A08BF032004D0F1
:1029D000084600241C609047204602B010BD01202C
:1029E000FBE70191FFF77CFF019908B9636CE2E70F
:1029F0004FF0FF30F1E700BF40F604030146C2F29A
:102A000000031868FFF7A6BF40F604030A46C2F2A7
:102A1000000301461868FFF77DBF00BF40F60403BE
:102A2000C2F200031868FFF75BBF00BF40F6040363
:102A30000146C2F200031868FFF7B6BF00000000AD
:102A400038B541F2C834C2F20004054608461146C2
:102A50000023236005F0A4F8431C00D038BD236890
:102A6000002BFBD02B6038BD05F08AB800000000B9
:102A70004B6E2DE9F0479C040E46804691462AD5C0
:102A80009368126802F1080A1BB31AE9A000BF0894
:102A90001CBF043D002402D113E0A7420FD04046E2
:102AA00055F8041F3246013401F0DAF9431CF4D121
:102AB0000023C9F80830C9F80430BDE8F087D9F818
:102AC0000830A3EB87030AF1080AC9F80830002B85
:102AD000DBD10020ECE701F07BFB0023C9F80830D4
:102AE000C9F80430BDE8F087936810B413B15DF8FD
:102AF000044BBDE7184653605DF8044B704700BFB8
:102B00002DE9F04FB1B01C46924604910A9308900B
:102B100018B18369002B00F0108148F21052049D17
:102B2000C0F24002954200F0128148F2F042049D4A
:102B3000C0F24002954200F04C85049D48F2D0421C
:102B4000C0F24002954202BF089DED680495DDF891
:102B50001090B9F80C108AB297040AD441F40052CC
:102B6000D9F86430A9F80C2092B223F40053C9F8C4
:102B70006430160740F1BF80049D2B69002B00F0E4
:102B8000BA8002F01A020A2A00F0C38048F2B04468
:102B90000DF18008C0F24004464627460DF17F093A
:102BA0000023C9EB08050D93CDF808900B930E9503
:102BB00015931493CDF84C80CDF80CA0DDF80C9053
:102BC00099F80030002B18BF252B00F0168209F170
:102BD0000102144601322378252B18BF002BF8D1AF
:102BE0000398251A0ED0149B159A013386E821000C
:102BF000072B2A441493D8BF0836159275DC0B991D
:102C000029440B912378002B00F0CA830023651C14
:102C100019468DF8473007939C462A4663784FF053
:102C2000FF3406940C4603950132A3F12000582886
:102C300000F28B83DFE810F07F03890389038503AB
:102C400089038903890389038903890339034203BB
:102C5000890391004503890341024502450245026B
:102C600045024502450245024502450289038903A2
:102C700089038903890389038903890389038903F4
:102C8000530289038903890389038903890389031B
:102C900089038903890373028903890389038903EB
:102CA00089038802890389039E02890389038903B2
:102CB0008903890389038903890389038903C70277
:102CC000DD02890389038903F802DD028903890390
:102CD000FE028903090395006303F40289031802C5
:102CE00089030602890389031F03002A40F06684D2
:102CF0001492464683E70898049900F019FEB8B983
:102D0000DDF81090B9F80C2002F01A020A2A7FF4BC
:102D10003DAF049DB5F90E30002BFFF637AF089894
:102D200029465246234600F0C1FD31B0BDE8F08F80
:102D30004FF0FF3031B0BDE8F08F00F097FF48F260
:102D40001052049DC0F2400295427FF4EEAE089D01
:102D50006D680495FBE664420A934CF0040C13780A
:102D600062E71CF020030794039200F0E081DDF895
:102D70002890002309F1070222F0070202F108045B
:102D80000A94D2E900AB00248DF84740069D002D3F
:102D9000069DA8BF2CF0800C5AEA0B090CBF00223C
:102DA0000122002D18BF42F00102002A00F07983B1
:102DB000012B00F0E583022B0DF17F0240F01F8113
:102DC000DDF834900AF00F014FEA1A1343EA0B734F
:102DD0004FEA1B1019F801109A46834615465AEA25
:102DE0000B0002F1FF322970ECD1C5EB0803099307
:102DF000099B069A9342B8BF134605930CB1013361
:102E000005931CF0020A1EBF059C023405941CF0B9
:102E10008409CDF8309040F0AA820798059BC41A27
:102E2000002C40F3A482102C40F3EC843B4648F283
:102E3000B0492746159A1498C0F240094FF0100B7C
:102E4000CDF83CC01C4606E010464FF0010C46464B
:102E5000103F102F1FDD411C10320729346000F194
:102E6000020CC6F804B01592084606F10806149143
:102E7000EEDD002AE8D0089813AA04994646FFF729
:102E8000F7FD002840F09382103F1498102F159AF8
:102E900000F1010CDFDC21466346DDF83CC03C4616
:102EA0000F46072B2244C6F80090D8BF591C746007
:102EB000D8BF08361592149340F35C82002A40F084
:102EC0002A849DF84700134601214646002840F019
:102ED0005682BAF1000F0ED0072912AB02F102029E
:102EE000336014914FF002031592736000F33D8339
:102EF0000B46083601310C9C802C00F0E382069CC6
:102F00000998C0EB0409B9F1000F40F36882B9F1E8
:102F1000100FDFF81CA3C1BFCB461024B94667468B
:102F200008DC2EE0134601214646ABF1100BBBF145
:102F3000100F23DD581CBE49072802F110027460EF
:102F400006F1080646F8081C03F102011592034633
:102F50001490EADD002AE5D0089813AA04994646A1
:102F6000FFF786FD002840F02282ABF1100B149B86
:102F7000BBF1100F159A03F10101DBDCBC464F4693
:102F8000D94607294A44C6F800A0C6F80490D8BF1D
:102F900008361491D8BF0131159240F32082002ADF
:102FA00040F00E82099A46460123209514932192FF
:102FB00015921CF0040F06F1080640F022820B9CCB
:102FC000DDF81490079DA945ACBF4C4464190B94DF
:102FD0003AB1089813AA0499FFF74AFD002840F077
:102FE000E681DDF80C9000231493464699F80030F2
:102FF000002B18BF252B7FF4EAAD039C02E64FEAB5
:10300000DA034FEADB0143EA4B7315468B460AF0BD
:1030100007029A4602F130035AEA0B0905F1FF3222
:103020002B70ECD11CF0010F29463FF4DEAE302BA3
:103030003FF4DBAE3023C2EB08001546099001F8DF
:10304000013CD5E61CF0200F0794039200F0848029
:103050000A9D0123EA1D22F0070202F10809CDF8BA
:103060002890D2E900AB8EE607944FF0000A0A9C44
:10307000039204F104098DF847A02568002D00F0A3
:10308000CA83069C2846002CC0F2988351462246EB
:10309000CDF804C001F0ECFDDDF804C0002800F01C
:1030A000DA83401BCDF82890A042B8BF0446CDF883
:1030B00018A009949DF847409AE64CF0800C1378CC
:1030C000B2E5A3F13000002404EB840412F8013BC4
:1030D00000EB4404A3F130000928F5D9A5E54CF034
:1030E000100C07941CF0200F03928DF8471000F08D
:1030F0008880DDF8289009F1070323F0070303F126
:1031000008040A94D3E9002392469B46002A73F1EF
:103110000005C0F2AB829DF84740012336E64CF033
:10312000100C07941CF0200303927FF420AE1CF0D7
:10313000100200F0B1820A9D4FF0000B043555F8E3
:10314000042C0A9592461EE64CF0100C07941CF0D5
:10315000200F03927FF47CAF1CF0100F00F0AC82C4
:103160000A9C01234FF0000B043454F8042C0A94F9
:10317000924608E61CF0200F48F6D009C0F240093C
:10318000079403928DF84710CDF8349000F08080BA
:103190000A9DEA1D22F0070202F10809CDF82890E5
:1031A000D2E900AB1CF0010F00F0E8815AEA0B00F5
:1031B00000F0E4818DF849304CF0020C30238DF89A
:1031C00048300223DFE50A9B4FF001090A9D039274
:1031D00000221B6804350A9516AD0794CDF81490AB
:1031E000CDF824908DF847208DF8583000240694AF
:1031F00007E61CF0200F079403928DF847107FF428
:1032000078AF1CF0100F00F076820A9D043555F857
:10321000043C0A959A461A464FEAE37B5B4675E7FB
:103220004CF0200C1378FFE44CF0400C1378FBE4D6
:10323000C0844000137810466C2B03BF01324CF061
:10324000200C43784CF0100CEEE41CF0200F03929D
:103250008DF8471000F03D82DDF828900B9C09F1B5
:10326000040959F8041C2246E517CDF828902B468E
:10327000C1E90023A2E41CF0200F079448F6E404FF
:103280000392C0F240048DF847100D947FF480AF94
:103290001CF0100F00F0F4810A9C4FF0000B043476
:1032A00054F8042C0A9492467CE70A9D2B1D2C6846
:1032B000002CFFF650AD0A931378B5E413782B2158
:1032C000B2E41378551C2A2B00F0D082A3F1300011
:1032D000092882BF2A46002506953FF6A6AC0022A3
:1032E00002EB820215F8013B00EB4202A3F1300031
:1032F0000928F5D942EAE27206922A4695E40A9B29
:1033000048F6E405DDF82890C0F2400503924CF041
:10331000020C1B6809F10409302207949A46CDF883
:10332000289078230D958DF849304FF0000B8DF8DB
:103330004820022327E5137800297FF475AC20216B
:1033400072E44CF0010C13786EE4079403928DF84C
:1033500047102BB34FF001098DF85830CDF8149079
:103360000023CDF8249016AD8DF847303EE7149B2E
:10337000159A591C9DF8470000283FF4AAAD07296B
:103380000DF1470302F10102336014914FF0010384
:103390001592736000F3E3800B460836013198E51F
:1033A000159B23B1089813AA0499FFF761FB049CAD
:1033B000A3895D063FF5BCAC0B9831B0BDE8F08F3A
:1033C000089813AA0499CDF804C0FFF751FBDDF863
:1033D00004C00028EBD114994646159A0131099B87
:1033E000072935601A441491159273607FF7E1AD97
:1033F000002A40F0D480464614921CF0040F3FF49B
:10340000DEAD079DDDF81490C9EB0504002C7FF7B5
:10341000D6AD102C40F3188248F2B0491499C0F28E
:1034200040091025DDF820A0DDF810B005E01146B8
:1034300001204646103C102C1DDD4B1C1032072B82
:10344000376001F1020075601592194606F1080611
:103450001493EFDD002AEAD05046594613AA464697
:10346000FFF706FB0028A2D1103C1499102C159AE6
:1034700001F10100E1DC07282244C6F80090159212
:10348000746014907FF79BAD002A40F08D810B9CF7
:10349000DDF81490079DA945ACBF4C4464190B940A
:1034A0009FE5002B67D11CF0010F04BF099345462F
:1034B0003FF49EAC0E9D30238DF87F3009950DF1C1
:1034C0007F0595E40798DDF81490C9EB0004002C03
:1034D0007FF715AD102CDFF804A340F3C581A1469A
:1034E0004FF0100B644607E0134601204646A9F151
:1034F0001009B9F1100F24DD591CB848072902F151
:103500001002C6F804B006F1080646F8080C03F1EC
:10351000020015920B461491E9DD002AE4D00898C8
:1035200013AA04994646FFF7A3FA00287FF43FAF99
:10353000A9F11009149BB9F1100F159A03F10100BC
:10354000DADCA4464C4607282244C6F800A01592AF
:103550007460149064DC0836411C0346CFE4002AF2
:103560003CD1194646461346B3E4002A47D11346D8
:1035700001214646BFE40992454639E4022302E4AC
:10358000BBF1000F08BFBAF10A0F50D20E9D0AF12D
:1035900030038DF87F3009950DF17F0528E40898F8
:1035A00013AA0499CDF804C0FFF762FADDF804C04D
:1035B00000287FF4FCAE159A46461EE7089813AA29
:1035C0000499FFF755FA00287FF4F1AE4646FFF75D
:1035D00016BB089DAD680495FFF7B9BA089813AA01
:1035E0000499CDF804C0FFF743FADDF804C00028C1
:1035F0007FF4DDAE149B4646159A591C69E4089881
:1036000013AA0499CDF804C0FFF732FADDF804C01C
:1036100000287FF4CCAE149B4646159A591C6AE4E8
:10362000002A40F0DD8013460121464667E40DF193
:103630007F0965460594504659460A22002302F048
:10364000BFF84C4650465946002309F1FF39303245
:1036500022700A2202F0B4F882468B465AEA0B0026
:10366000E9D1AC462546059CFFF7BFBB2D24DAF116
:10367000000A6BEB4B0B8DF847400123FFF786BB2D
:103680001CF0400F00F084800A9D4FF0000B0435C1
:1036900035F804AC0A9585E51CF040036ED0DDF8E2
:1036A000289013464FF0000B09F1040939F804ACD7
:1036B000CDF82890FFF767BB1CF0400F50D00A9D53
:1036C0004FF0000B0123043535F804AC0A95FFF7E1
:1036D0005ABB1CF0100F3AD11CF0400F00F0AB8029
:1036E0000A9DDDF82C90043555F8043C0A95A3F8A2
:1036F0000090FFF763BA1CF0400F1DD0DDF8289052
:1037000009F1040939F904ACCDF8289052464FEA82
:10371000EA7B5B46FAE4089813AA0499CDF804C042
:10372000FFF7A6F9DDF804C000287FF440AE149B33
:103730004646159A591C1DE60A9C043454F8043C6C
:103740000A949A461A464FEAE37B5B46DEE40A9DFA
:103750000B9C043555F8043C0A951C60FFF72EBA03
:10376000DDF8289001234FF0000B09F1040959F806
:10377000042CCDF828909246FFF705BB0A9C4FF029
:10378000000B043454F8042C0A949246FFF7FBBA59
:10379000DDF828904FF0000B09F1040959F8042CCA
:1037A000CDF828909246FDE4089813AA0499FFF7F3
:1037B0005FF900287FF4FBAD159A00E4CDF804C052
:1037C000CDF82890CDF818A001F06AFE9DF847408A
:1037D000DDF804C00990FFF70BBB00BFC0844000B8
:1037E000089813AA0499CDF804C0FFF741F9DDF851
:1037F00004C000287FF4DBAD149B4646159A591C83
:10380000FFF77DBB149B48F2B049C0F24009159AFE
:103810000133FFF746BB069DCDF82890062D28BF43
:1038200006250995099B48F6F805C0F2400523EAEC
:10383000E3730593DAE40A9C0B9D043454F8043CCA
:103840000A941D60FFF7BAB9149848F2B049C0F263
:10385000400901300FE606999DF84740CDF82890C1
:1038600009910690FFF7C4BA08466CE60A98DDF89D
:1038700028900068069009F10400069B0A90002B2E
:1038800053782A46BCBF4FF0FF350695FFF7CCB9F9
:1038900030B440F60404C2F200040D46134601465B
:1038A0002A46206830BCFFF72BB900BF2DE9F04F46
:1038B0008846ADF26C4D4FF48065D8F86470694667
:1038C000B8F80EA01AACB8F80CB0002619978146CB
:1038D000D8F820702BF0020B009404940897D8F8C5
:1038E0002870ADF80CB0ADF80EA00A9706960295B8
:1038F0000595FFF705F9041E07DB4846694600F009
:103900003FF9B04218BF4FF0FF34BDF80C302046ED
:103910005B0642BFB8F80C3043F04003A8F80C3007
:103920000DF26C4DBDE8F08F0000000000000000BB
:1039300040F60403C2F2000370B506461D680C464B
:1039400015B1AB69002B4DD048F21053C0F24003C3
:103950009C4208BF6C680ED048F2F043C0F24003AE
:103960009C4208BFAC6806D048F2D043C0F2400386
:103970009C4208BFEC68A28993B218070CD5216954
:10398000A9B113F001021ED063690022A2605B425C
:10399000A361F1B1002070BDD9063CD55D0725D4E7
:1039A000216942F00803A3819BB20029E9D103F405
:1039B0002072B2F5007FE4D02146304600F028FEA8
:1039C000A3892169DDE7980758BF6269A2600029D1
:1039D000E0D1A3891A06DDD543F040034FF0FF3054
:1039E000A38170BD284600F041F9ADE7616B49B194
:1039F00004F14403994203D0304600F01BFBA28936
:103A00000023636322F0240221690023636012040F
:103A10002160120CC5E742F0400209234FF0FF304D
:103A20003360A28170BD00BF0000000000000000F4
:103A30008B892DE9F0411A070D4680463CD44A682F
:103A400043F400638B81002A5BDDEC6A002C4DD0CF
:103A50009BB2D8F8007003F480560022C8F800200A
:103A6000B6B2002E51D06A6D5E0705D569686B6BE2
:103A7000521A0BB12B6CD21A4046296A0023A04778
:103A8000441C4DD0AB8900212A6923F4006369608E
:103A90009BB22A60DA04AB814FD4696BC8F800701E
:103AA00021B305F14403994202D0404600F0C2FA26
:103AB00000206863BDE8F0810E69BEB10C680E603D
:103AC000990718BF0023C6EB040408BF6B69AB60FD
:103AD0000AE032462346AF6A4046296AB8470028C2
:103AE000C0EB0404064404DD002CF2DC0020BDE839
:103AF000F081AB894FF0FF3043F04003AB81BDE86C
:103B0000F0810A6C002AA0DCF0E73246012340462F
:103B1000296AA047431C02461ED0AB89EC6AA3E782
:103B2000D8F800305BB9A9892A6921F400616B607B
:103B30008BB2AB81DB042A60AFD56865ADE71D2B86
:103B400001D0162B15D12B690021AA89696022F4B6
:103B500000622B60AA81A0E7D8F80030002BDCD0EF
:103B60001D2B18BF162BC4D1C8F800703046BDE815
:103B7000F081AB8943F04003AB81BDE8F08100BF29
:103B80000B6910B5044682B0E3B108B1836913B381
:103B900048F21053C0F24003994208BF61680ED04A
:103BA00048F2F043C0F24003994208BFA16806D032
:103BB00048F2D043C0F24003994208BFE168B1F92E
:103BC0000C3013B9002002B010BD204602B0BDE891
:103BD0001040FFF72DBF019100F048F80199D7E799
:103BE00038B140F604030146C2F200031868FFF73B
:103BF000C7BF48F2A04343F68131C0F24003C0F290
:103C00004001186800F088BC0000000000000000BF
:103C1000002070470020704745F2B171C0F24001AA
:103C200000F056BC70B54B1E68250E4605FB03F52B
:103C300005F1740100F064FD044640B100210C3030
:103C4000666005F168022160A060FEF7F9FD20467C
:103C500070BD00BF48F2A04345F2B171C0F240030D
:103C6000C0F24001186800F033BC00BF2DE9F84FE6
:103C700005468369002B40F0898048F2A04143F655
:103C80001942C0F24001C0F8D830C0F8DC30C0F2B0
:103C9000400209680024C0F8E030042788428262AC
:103CA00004BF0123836100F073F845F2D11B45F294
:103CB000F91A45F2312945F25128C0F2400BC0F201
:103CC000400AC0F24009C0F240086860284600F08F
:103CD0005FF8A860284600F05BF86E68214608226D
:103CE000E86006F15C00B78134607460B4607466AB
:103CF000F48134617461B461FEF7A2FDAF684FF0E6
:103D000001033662C6F824B04FF0090EC6F828A0A9
:103D10002146C6F82C900822C6F8308007F15C00D6
:103D2000FB81A7F80CE03C607C60BC607C663C6179
:103D30007C61BC61FEF784FDEE684FF0120CC7F8A1
:103D400024B0C7F828A04FF0020EC7F82C902146E7
:103D5000C7F8308006F15C003F620822346074606E
:103D6000B460746634617461B461A6F80CC0A6F8DE
:103D70000EE0FEF765FDC6F824B0C6F828A00123C2
:103D8000C6F82C90C6F830803662AB61BDE8F88F7B
:103D900048F2A043C0F2400370B506461D68AB6907
:103DA000002B2AD0D8356B68AC68013B04D520E0E5
:103DB000013B68345A1C1CD0B4F90C20002AF7D1FE
:103DC000002501234FF6FF76656629462560A5602C
:103DD00004F15C006560082225616561A561E681EA
:103DE000A381FEF72DFD20466563A563A564E56408
:103DF00070BD2B682BB11D46D5E72846FFF736FF6F
:103E0000D0E730460421FFF70DFF286008B10546D2
:103E1000C9E70C22326070BD704700BF704700BF19
:103E2000704700BF704700BF40F6040343F61141DE
:103E3000C2F20003C0F24001186800F049BB00BFA5
:103E400040F6040343F61541C2F20003C0F24001FC
:103E5000186800F03DBB00BF00000000000000003B
:103E600093892DE9F0410F469904144658BF43F455
:103E7000005382B058BF526E80465EBFA38142F4A9
:103E80000052626600F0A4FB012841D03A46404649
:103E900001A904F15C0301F0ABFB421C064630D0E3
:103EA0009DF8041000283BD000250AE02368197013
:103EB0002368013323600135B54231D22B1D6A4698
:103EC000995CA368013BA360002BEFDAA2699342DF
:103ED00008DB2368197023685A1C19780A2918BF4F
:103EE0002260E8D14046224601F00AFBB0F1FF33E0
:103EF000584258410028DED04FF0FF3002B0BDE8F4
:103F0000F081A38943F04003A38102B0BDE8F081B2
:103F10007B1EFE2BBAD8F9B206468DF80410C3E713
:103F2000384602B0BDE8F08140F60403C2F2000357
:103F300070B506461D680C460DB1AB69EBB148F291
:103F40001053C0F240039C4208BF6C680ED048F288
:103F5000F043C0F240039C4208BFAC6806D048F270
:103F6000D043C0F240039C4208BFEC68284631466B
:103F70002246BDE87040FFF773BF2846FFF776FE84
:103F8000DDE700BF000000000000000000000000AE
:103F9000F8B540F67414C2F200040F46054600F06E
:103FA00017FFA3685E6826F00306F71B07F6EF7796
:103FB0003F0B013F3F03B7F5805F07DB2846002139
:103FC00003F0B6FDA3683344984204D0284600F0BD
:103FD00001FF0020F8BD2846794203F0A9FD013019
:103FE00010D040F6A453A168C2F20003F61B284685
:103FF00046F001061A684E60D71B1F6000F0EAFE0B
:104000000120F8BD2846002103F092FDA368C21AE2
:104010000F2ADBDD40F67C5440F6A451C2F20004C6
:10402000C2F2000142F001025A602368C01A08601F
:10403000CCE700BF2DE9F0410E46804600295ED056
:1040400000F0C6FE40F6741556F8041CC2F20005D6
:10405000A6F1080421F00103AF68E2189742506806
:1040600020F0030061D011F00101506018BF002161
:104070000FD156F8086C05F1080CA41B3344A66850
:1040800066450FBF0121D4F80CC0C6F80CC0CCF8AF
:10409000086016187668F60708D40344906811B9CA
:1040A000494EB04260D0D268C260906043F00102D5
:1040B0006260E350F1B9B3F5007F22D35A0A042AB3
:1040C0005BD898093830410005EB810540F6741142
:1040D000C2F20001AA68AA425BD0516821F0030134
:1040E0008B4202D292689542F7D1D368E360A26016
:1040F0009C60D4604046BDE8F04100F06BBEBDE876
:10410000F081DB080121686805EBC3029B1001FA0E
:1041100003F391681843E26068604046A1609460D0
:10412000CC60BDE8F04100F055BECF07184407D47D
:1041300056F8083CE41A1844A268E368D3609A6011
:1041400040F6805240F00103C2F200026360AC60AE
:1041500013689842CED340F6A0534046C2F2000303
:104160001968FFF715FFC5E76C6143F001022C6188
:10417000E060A0606260E350BCE7142A9CBF02F1DB
:104180005B004100A0D9542A0CD8180B6E304100B6
:104190009AE701264D688010134606FA00F00543A1
:1041A0004D60A3E7B2F5AA7F03D8D80B7730410062
:1041B0008AE740F254518A4295BF980CFC217C302A
:1041C0007E2098BF41007FE77C09002000000000AE
:1041D00093682DE9F04F164683B081460C46002BBC
:1041E0005ED08B8919075FD52269002A5CD003F065
:1041F00002024FF0000A3568D04692B2002A37D149
:1042000013F0010A6FD1D046B8F1000F25D09A05FE
:10421000A76840F1A280B845C0F0CA8013F4906F3F
:1042200040F0E8802068BB460197474651465A4611
:1042300000F066FDA1682268434601985A44226056
:10424000091AA160B2689A44C3EB0808D71BB7608B
:1042500037B3A389B8F1000FD9D1D5F800A008353C
:1042600055F8048CD0E7D5F800A0083555F8048C33
:10427000B8F5806F34BF43464FF4806352464846DA
:10428000B8F1000FEFD0216AA76AB847002882442E
:10429000C0EB08081EDDB368181AB0600028E7D12B
:1042A000002003B0BDE8F08F48462146FFF740FBF1
:1042B000002840F0FF80A38999E751463A4600F074
:1042C0001FFD2368484621463B442360FFF758FC06
:1042D000002852D0A38943F040034FF0FF30A38160
:1042E00003B0BDE8F08F9246934690460192B8F134
:1042F000000F2AD0019F002F6ED02068C24534BF26
:104300005346434621691F46D4F808C08842626973
:1043100003D99444634500F39F8093422FDB1346F7
:10432000A76A4846216A5A46B847071ED2DDBAEB4B
:10433000070A34D0B368BB44C7EB0808DF1BB7607B
:10434000002FADD0B8F1000FD4D1D5F800B00027C0
:10435000D5F8048008350197C9E720682369984299
:1043600001D9B845A9D86369984527D3A76A4846B3
:10437000216A5246B847071EACDD3B4662E71A4643
:104380005946009300F0BCFC009BBAEB070AA168F9
:104390002268C3EB0101A16013442360CAD14846DF
:1043A0002146FFF7EDFB002894D1CDF804A0C1E72A
:1043B00020684746CDF80480C34637E75146424659
:1043C00000F09EFCA16822684746C8EB0101434605
:1043D0004244A160226035E758460A21424600F077
:1043E00047FC002861D000F1010A0127CBEB0A0A43
:1043F000019782E767692268216907EB4707C1EBEC
:10440000020B07EBD7770BF1010242447F10974272
:1044100034BF17463A465B0534D51146484600F08E
:104420006FF9002849D021695A460090FEF7B0F98B
:10443000A289009B22F4906242F08002A28103EBE9
:104440000B0023616761CBEB070320604746A36045
:10445000C346CDF80480E9E662465946CDF800C06F
:1044600000F04EFCDDF800C0484623682146634456
:104470002360FFF785FBDDF800C000287FF42AAF3A
:10448000674654E7484600F0ABFC03460028D6D107
:1044900048462169FFF7CEFDA3890C22C9F8002008
:1044A00023F080031B041B0C15E7012708F1010A08
:1044B000019722E74FF0FF30F3E60C22A389C9F8F9
:1044C000002008E7000000000000000000000000DD
:1044D0002DE9F04110F1D806884619D000277568FB
:1044E000B468013D0ED4A389013D012B06D9B4F96E
:1044F0000E302046013301D0C04707436B1C04F146
:104500006804F0D13668002EE9D13846BDE8F08164
:1045100037463846BDE8F0812DE9F84310F1D8065A
:10452000804689461AD000277568B468013D0FD4CB
:10453000A389013D012B07D9B4F90E30214640462D
:10454000013301D0C84707436A1C04F16804EFD166
:104550003668002EE8D13846BDE8F883374638463D
:10456000BDE8F8830000000000000000000000002B
:1045700010B514463AB148F600111046C0F2400199
:1045800000F06EFE20B948F6C000C0F2400010BD39
:1045900048F6C0012046C0F2400100F061FE00284C
:1045A000F1D048F68C012046C0F2400100F058FEE0
:1045B00048F6C003C0F2400300280CBF1846002094
:1045C00010BD00BF40F6F800C2F20000704700BF07
:1045D00040F6F803C2F20003186A704700487047BB
:1045E0001C09002000207047004870473C0900204B
:1045F00040F604030A46C2F2000301461868FFF7BA
:10460000B7BF00BF004870473C0900200000000011
:104610008B89F0B50C469AB291B0960705463BD40B
:10462000B1F90E10002917DB01AA03F091FA002856
:1046300010DB029B03F47043B3F500514F424F412E
:10464000B3F5004F30D0A3894FF4806643F4006384
:10465000A3810CE0A3899AB212F0800F4FF00007FB
:1046600014BF40264FF4806643F40063A3812846BC
:10467000314600F045F8002831D0A28943F61943AD
:10468000C0F24003AB6242F08003206020616661AB
:10469000A381C7B911B0F0BD01F1470301220B603E
:1046A0000B614A6111B0F0BD45F23123E26AC0F2FC
:1046B00040039A42C7D1A2894FF480631E46236506
:1046C0001343A381D3E72846B4F90E1003F050FA40
:1046D0000028DFD0A38943F00103A381DAE7A3898F
:1046E0009A05D7D443F0020304F14702A3810123C2
:1046F000226022616361CDE700000000000000003D
:104700002DE9F04F01F10B04162C83B08EBF24F07D
:10471000070400231024074688BFE30F8C422CBFF8
:10472000194643F00101002940F0BA8000F050FB27
:10473000B4F5FC7F20D240F674164FEAD40CC2F2D6
:10474000000606EBCC02D368934200F0F78159686B
:1047500003F10808DA68384621F003049968234415
:104760005C68CA6044F0010491605C6000F032FB58
:10477000404603B0BDE8F08F5FEA542C04BF7E25AD
:104780004FF03F0C40F0948040F67416C2F20006E1
:1047900006EB8505EB689D4206D10DE0002A80F20C
:1047A0006481DB689D4207D0596821F003010A1B30
:1047B0000F2AF3DD0CF1FF3C0CF1010C40F67412F2
:1047C0003369C2F2000202F1080E734508BF516856
:1047D00023D0586820F00300011B0F2900F39281B9
:1047E0000029C2F814E0C2F810E06CDAB0F5007FDE
:1047F00080F06181C0084FF00108516802EBC005EC
:10480000801008FA00F848EA0108A8684146DD600F
:10481000C2F804809860AB60C36001224FEAAC0329
:1048200002FA03F38B425CD819420BD193402CF06F
:10483000030C19420CF1040C04D15B000CF1040CC4
:104840001942FAD006EBCC08E1464046C2689042D5
:1048500007D16BE1002980F27B81D268904200F0A1
:104860006581556825F00305291B0F29F2DD904667
:10487000D5683846131958F8087F44F0010C41F008
:104880000104C2F804C0FD60AF6073613361C3F816
:104890000CE0C3F808E05C60595000F09BFA67E751
:1048A0004FF000080C230360404603B0BDE8F08FD2
:1048B000BCF1040F00F2EB804FEA941C0CF1380CB1
:1048C0004FEA4C0560E71A1803F1080838465368A8
:1048D00043F00103536000F07DFA404603B0BDE8A9
:1048E000F08FB5686B6823F0030A544504D8C4EB15
:1048F0000A030F2B00F3A88040F6A059D6F808143D
:10490000C2F200093846013105EB0A02D9F800303D
:104910000192234417BF03F5805303F1100B0F33AB
:1049200023F47F6318BF23F00F0B594603F000F9FF
:10493000019AB0F1FF3F804600F02081824200F2F0
:104940001A81D9F8043042455B44C9F8043000F0BC
:104950006581D6F8081440F67410C2F200000131E7
:1049600017BFC2EB0802C0F808849B18C9F80430CE
:1049700018F0070338461FBFC3F10802C3F5805380
:10498000904403F1080208EB0B0308BF4FF4805278
:10499000C3F30B03C3EB020B594603F0C9F840F60F
:1049A000A052C6F80880C2F20002431CD9F80430B5
:1049B00015BFC8EB0001012159444FF0000B18BF8F
:1049C00041F00101B5425B44C8F80410C9F8043055
:1049D00018D0BAF10F0F40F20081AAF10C006968FB
:1049E00020F007004FF0050C05EB000E0F2801F03A
:1049F000010140EA01016960CEF804C0CEF808C0A8
:104A000000F2188140F6A052D9F82C10C2F2000230
:104A1000B5688B42D9F8301088BFD36240F6A052F7
:104A2000C2F200028B4288BF13636A6822F003025D
:104A30009442C4EB020301D80F2B05DC38464FF03B
:104A4000000800F0C7F993E62A1943F0010338463D
:104A500044F001046C6005F10808B260536000F096
:104A6000B9F9404603B0BDE8F08F1944DA689C6894
:104A700038464D6803F10808E26045F0010594608E
:104A80004D6000F0A7F9404603B0BDE8F08FBCF1DF
:104A9000140F9CBF0CF15B0C4FEA4C057FF674AE13
:104AA000BCF1540F00F28F804FEA143C0CF16E0CF5
:104AB0004FEA4C0568E6420A042A58D9142A9CBFDA
:104AC00002F15B014D0005D9542A00F2BC80010BB4
:104AD0006E314D0006EB850540F67418C2F20008F1
:104AE000AA68AA427FD0516821F00301884202D20D
:104AF00092689542F7D1D0687168D8609A608360F7
:104B0000D3608AE61D1941F0010644F001043846DD
:104B10005C6003F1080855611561C5F80CE0C5F843
:104B200008E06E60695000F055F921E609F10109CD
:104B3000083019F0030F7FF489AE28E003F1080272
:104B40005B699A4208BF0CF1020C3FF437AEFEE5F8
:104B500090461544D368384658F8082F696841F0E4
:104B600001016960D3609A6000F034F900E68109C0
:104B700038314D00AEE7B5423FF4E3AEB5686A6840
:104B800022F0030254E7D8F8008090456DD11CF064
:104B9000030FA8F108020CF1FF3CF4D1726822EA7D
:104BA000030272605B0093423FF69BAE002B3FF422
:104BB00098AE1A42CC467FF445AE5B000CF1040C73
:104BC0001A42FAD03EE6BCF5AA7F18D84FEAD43C88
:104BD0000CF1770C4FEA4C05D6E501234546C8F8A1
:104BE0000430002224E74FF001098D10D8F804109A
:104BF000104609FA05F52943C8F804107DE740F28C
:104C000054539C4595BF4FEA944CFC250CF17C0C09
:104C10004FF07E0C98BF4FEA4C05B5E5C2F30B018F
:104C200000297FF496AEB2680BEB0A0141F0010156
:104C30005160E7E605F1080138460192FFF7FAF9FD
:104C4000019A5368DEE6B2F5AA7F03D8C10B77312B
:104C50004D003FE740F254518A4295BF810CFC253C
:104C60007C317E2198BF4D0034E772689AE700BF1F
:104C70008307C9B270B43FD0541E2AB303788B4265
:104C800023D0431C04E0FCB1057814468D421CD0AF
:104C900013F0030F184604F1FF3203F10103F2D1C0
:104CA000032C14D8651E4CB303788B420DD0421CE4
:104CB000002302E004788C4207D0AB42104603F197
:104CC000010302F10102F5D1002070BC704741EAF6
:104CD0000126034646EA0646184604330268724037
:104CE000A2F1013525EA020212F0803FDAD1043C3C
:104CF0001846032CF0D8D5E71446D1E72046E4E760
:104D00008842F0B410D98C18A0420DD28518531ED9
:104D100042B121462A4611F8014D013B02F8014DEE
:104D20005C1CF8D1F0BC70470F2A46D940EA010359
:104D30009B0746D1A2F110070C4603463F0900EB42
:104D40000716103625681033103443F8105C54F8F9
:104D50000C5C43F80C5C54F8085C43F8085C54F8AD
:104D6000045C43F8045CB342ECD17B1C02F00F0CF2
:104D7000BCF1030F4FEA03131944034423D90E4631
:104D80001D46644656F8047B043C032C45F8047B1E
:104D9000F8D8ACF1040402F0030224F00304043454
:104DA00023442144002ABDD01A4411F8014B03F8D2
:104DB000014B9342F9D1F0BC70470346002AF3D16E
:104DC000B0E70346F0E76246002AEDD1AAE700BF4C
:104DD000704700BF704700BF0000000000000000E7
:104DE0002DE9F04F0C4683B090468146002900F033
:104DF0004881FFF7EDFF08F10B06162E54F804CC9E
:104E00008DBF26F0070610220023324688BFF30F1D
:104E1000A4F108072CF0030598BF1646464538BF95
:104E200043F00103002B40F03281954216DBA0468F
:104E30006046AB1B0F2B00F2CC807B1900F0010CFD
:104E40004CEA05057D605A6842F001025A60484606
:104E5000FFF7C0FF404603B0BDE8F08F40F6741A7C
:104E60007919C2F2000ADAF80800884200F01481C9
:104E7000D1F804E02EF0010B8B44DBF804B01BF0FA
:104E8000010F1CBF9E46714656D01CF0010F40F02A
:104E9000B38054F8083CC3EB070BDBF8043023F075
:104EA00003032B44002955D0814200F021819E4408
:104EB00096454FDBCB68D84689682A1F242ACB60E9
:104EC0009960DBF80C3058F8081FCB60996000F24D
:104ED0006A81132A98BF424623D923681B2A98BFA8
:104EE0000BF11002CBF80830636898BF0834CBF898
:104EF0000C3016D9A368242A14BF0BF118020BF149
:104F00002002CBF81030E36818BF1034CBF814300F
:104F100001BF2369CBF818306369183408BFCBF898
:104F20001C30236875465F46136063685360A3684E
:104F30009360DBF804007CE72EF0030E0EEB050314
:104F40009342A2DBCA68A046896860461D46CA60D3
:104F500091606EE793424FDBD846DBF80C102A1FB6
:104F600058F8080F242AC160886000F2B480132A20
:104F700098BF414622D921681B2ACBF808106168E6
:104F800098BF0834CBF80C1098BF0BF1100115D95D
:104F9000A168242ACBF81010E16818BF1034CBF8B0
:104FA000141011BF0BF1180122690BF12001CBF88D
:104FB000182002BF62691834CBF81C2022681D46F5
:104FC0005F460A6063684B60A3688B60DBF804008F
:104FD0002FE7B91900F0010CCA184CEA060643F095
:104FE00001037E604B6048465368083143F001037B
:104FF0005360FFF71FF82AE741464846FFF780FB5A
:10500000804600283FF423AF54F8043CA0F1080187
:1050100023F001023A44914200F0BD802A1F242A65
:1050200062D8132A9CBF034622461FD923681B2A35
:1050300098BF04F1080203606368436098BF00F101
:10504000080313D9A368242A14BF04F1100204F141
:1050500018028360E368C36011BF00F11003216987
:1050600000F11803016104BF6169416111681960B1
:105070005168596092689A6021464846FEF7DAFF07
:10508000E5E6114603B0BDE8F04FFFF739BB0C234E
:105090000020C9F80030DEE6436806F1100123F075
:1050A000030E0EEB05038B42B8BF0146FFF6EDAED3
:1050B00037449B1BCAF8087043F001037B604846E5
:1050C00054F8043C03F001031E4344F8046CFFF75A
:1050D00081FE2046BFE6214640461D465F46FFF75B
:1050E0000FFEDBF80400A4E62146FFF709FEC3E744
:1050F00006F110010EEB030C8C45FFF62BAFD846E2
:10510000DBF80C302A1F58F8081F242ACB6099605E
:1051100052D8132A98BF434622D923681B2ACBF8BA
:105120000830636898BF0834CBF80C3098BF0BF197
:10513000100315D9A368242ACBF81030E36818BFF0
:105140001034CBF8143011BF0BF1180322690BF1A6
:105150002003CBF8182002BF62691834CBF81C205A
:1051600022681A6062685A60A2689A600BEB0603B4
:10517000C6EB0C02CAF8083042F001025A604846F9
:10518000DBF8043003F001031E43CBF80460FFF7A3
:1051900021FE40465FE650F8042C1846A04622F057
:1051A00003031D4445E62146404675465F46FFF72A
:1051B000A7FDDBF804003CE621464046CDF804C0DC
:1051C000FFF79EFDDDF804C0D0E700BF000000003F
:1051D00010B50C46B1F90E1002F08AFC0028ABBFE6
:1051E000636DA3891B1823F48053ACBF6365A3814F
:1051F00010BD00BF002070472DE9F0410C468989A1
:105200001D4616460746CB0506D5B4F90E100022FA
:10521000022302F075FCA18921F480513846A18156
:105220003246B4F90E102B46BDE8F04102F070BCD6
:1052300010B50C46B1F90E1002F062FCA389421CB5
:1052400016BF606523F4805343F48053A38110BDDF
:10525000B1F90E1002F064BC000000000000000074
:1052600040EA010C1CF0070F27D1BDF1100DCDE96C
:105270000245CDE900676FF000064FF0000700BF60
:10528000F0E80223F1E80245A242A2F1013C2CEA37
:10529000020C0CF0803C08BFBCF1000F40F0E58030
:1052A000AB42A3F1013C2CEA030C0CF0803C08BF9C
:1052B000BCF1000F40F0D680E2E710F0030C21D0E3
:1052C00020F0030050F8042B5FEACC7C08D00FD20A
:1052D00011F801CB5FFA92F3B3EB0C0C10D17BB158
:1052E00011F801CB5FFAA2F3B3EB0C0C08D13BB180
:1052F00011F801CB5FFAB2F3B3EB0C0C00D10BB990
:1053000060467047BDF1100DCDE90245CDE900675B
:105310006FF000064FF0000711F0030C33D110F0CE
:10532000040F0FD050F8042B51F8044BA242A2F105
:10533000013C2CEA020C0CF0803C08BFBCF1000FD1
:1053400040F0938011F0040F99D051F8045B00BF36
:10535000F0E80223AA42A2F1013C2CEA020C0CF074
:10536000803C08BFBCF1000F79D1F1E80245A342AF
:10537000A3F1013C2CEA030C0CF0803C08BFBCF10B
:10538000000F69D1E4E721F00301BCF1020F20D046
:105390003FDA51F8045B00BF50F8043B4FEA152593
:1053A000A3F1013C2CEA030C0CF0803CB7EB0C2F72
:1053B00003EA162208BFAA4251D151F8045BBCF19E
:1053C000000F82EA03034FEA056208BF934240D10F
:1053D000E2E751F8045B00BF50F8043B4FEA154583
:1053E000A3F1013C2CEA030C0CF0803CB7EB0C4F12
:1053F00003EA164208BFAA4231D151F8045BBCF15E
:10540000000F82EA03034FEA054208BF934220D10E
:10541000E2E751F8045B00BF50F8043B4FEA156522
:10542000A3F1013C2CEA030C0CF0803CB7EB0C6FB1
:1054300003EA166208BFAA4211D151F8045BBCF11D
:10544000000F82EA03034FEA052208BF934200D10E
:10545000E2E719BA12BA0AE019BA22BA07E011BA99
:105460002ABA04E019BA2ABA01E011BA22BA9CFA9F
:105470008CF0DDE90067DDE902451DF1100D38B162
:10548000B0FA80F0C0F1180021FA00F122FA00F21F
:105490000120914298BF8041704700BF000000008A
:1054A00020F0030110F00300C0F1000051F8043BAC
:1054B00000F1040C4FEACC0C6FF000021CBF22FA82
:1054C0000CF213434FF0010C4CEA0C2C4CEA0C4C40
:1054D000A3EB0C0222EA030212EACC1204BF51F839
:1054E000043B0430F4D013F0FF0F1FBF013013F45E
:1054F0007F4F013013F47F0F18BF0130704700BF9A
:1055000070B50D461446064610B18369002B5DD078
:1055100048F21053C0F240039C4208BF74680ED09A
:1055200048F2F043C0F240039C4208BFB46806D082
:1055300048F2D043C0F240039C4208BFF468A289FD
:10554000A06993B2A06018072DD5206900282AD041
:105550009904EDB25EBF42F40052A281636E6269AB
:105560005CBF23F4005363662368181A9042B8BFE7
:10557000013022DAA268591C2160013AA2601D7034
:105580006369834206D0A389DB0701D50A2D01D0C8
:10559000284670BD30462146FEF7F2FA0028F7D0C3
:1055A0004FF0FF3070BD30462146FEF7C1F90028AC
:1055B000F6D1A289206993B2CAE730462146FEF7A8
:1055C000DFFA0028ECD123680120D3E7FEF74EFB79
:1055D0009EE700BF40F604030A46C2F200030146FC
:1055E0001868FFF78DBF00BF00000000000000003A
:1055F0002DE9F0410D4686B0064690461F46A9B1FA
:1056000040F68454C2F200042468FEF7DBFF0097E2
:105610002946424603463046A047431C01BF0022AC
:105620008A233A60336006B0BDE8F08140F68453C7
:10563000C2F200031C68FEF7C5FF00972A4603A9C3
:1056400003463046A047E8E740F60403C2F20003F1
:105650002DE9F04104461D6840F6845386B00F469C
:105660001646C2F2000390B1D3F80080FEF7AAFFFD
:10567000009621463A4603462846C047421C01BFD1
:1056800000228A2332602B6006B0BDE8F0811F68DB
:10569000FEF798FF0096224603A903462846B8471E
:1056A000ECE700BF00000000000000000000000068
:1056B00041B1FF2A95BF0A704FF0FF3101218A23C3
:1056C00088BF0360084670472DE9F04140F68454D6
:1056D000C2F2000482B0984605460F46164624687A
:1056E000FEF770FFCDF80080394632460346284663
:1056F000A04702B0BDE8F0810000000000000000FB
:1057000070B50C460546E9B110B18369002B47D04E
:1057100048F21053C0F240039C4208BF6C680ED0A0
:1057200048F2F043C0F240039C4208BFAC6806D088
:1057300048F2D043C0F240039C4208BFEC68B4F981
:105740000C300BB9002070BD28462146FEF718FA30
:10575000236B06463BB12846216A984736EA200665
:1057600028BF4FF0FF36A3891B061CD4616B41B1E3
:1057700004F14403994202D02846FEF75BFC002363
:105780006363A16C21B12846FEF754FC0023A36497
:10579000FEF742FB0023A381FEF740FB304670BDBD
:1057A000FEF764FAB4E728462169FEF743FCDDE71B
:1057B00040F604030146C2F200031868FFF7A0BFD9
:1057C0004BB942B9002908BF002802D04FF0FF3181
:1057D000084600F03DB882B0EC462DE9005000F0DC
:1057E0001FF8DDF804E002B00CBC704700000000B8
:1057F0002DE9F0471746804689469A46089E00F0F4
:105800002FF8A7FB004507FB01F700FB0A721544C0
:10581000B8EB040469EB0505C6E90045BDE8F0876F
:105820002DE9F8431746804689461D46089E00F03C
:10583000C7F900FB05F3A0FB074507FB01373D4413
:10584000B8EB040469EB0505C6E90045BDE8F8833B
:10585000704700BF000000000000000000000000D2
:105860002DE9F04F444261EB410500294FF0FF362E
:10587000A2BF04460D460026002B85B0C0F2C780AB
:105880002046AA469446194690462746A946002B2C
:1058900058D1AA426CD9B2FA82F35BB1C3F12002AB
:1058A00005FA03F924FA02F20CFA03F842EA0909AC
:1058B00004FA03F74FEA1844484621461FFA88FACB
:1058C00000F0FEFA21468346484600F027FC3A0CD9
:1058D0000AFB0BF042EA014188420BD911EB0801A7
:1058E0000BF1FF3305D2884284BFABF1020B414478
:1058F00000D89B46C0EB010921464846BFB200F0E4
:10590000DFFA21460546484600F008FC0AFB05FA86
:1059100047EA01418A4509D911EB080805F1FF332F
:1059200003D2C24588BF023D00D81D4645EA0B435D
:1059300000241846214616B1404261EB410105B0F2
:10594000BDE8F08FAB4284BF00242346F1D8B1FA02
:1059500081F5002D40F0B580514528BF82428CBFB3
:10596000002401249CBF01232C46E2D92346E0E712
:1059700022B91146012000F0A3FA8046B8FA88F354
:10598000002B49D1C8EB09094FEA18451FFA88FADC
:1059900001242946484600F093FA294683464846A2
:1059A00000F0BCFB3A0C0AFB0BF042EA01418842D2
:1059B0000CD911EB08010BF1FF3380F0F280884223
:1059C00084BFABF1020B414440F2EB800A1A294636
:1059D0001046019200F074FA019A2946BFB281463E
:1059E000104600F09BFB0AFB09FA47EA01418A4591
:1059F0000AD911EB080809F1FF3304D2C24588BF68
:105A0000A9F1020900D8994649EA0B4391E7F64308
:105A1000524263EB430333E708FA03F8C3F1200B68
:105A200029FA0BF409FA03F94FEA184520462946EA
:105A300027FA0BFB9F4000F043FA29461FFA88FA29
:105A40004BEA090B02462046019200F067FB019ADF
:105A50004FEA1B430AFB02F043EA014188420BD99B
:105A600011EB080102F1FF3380F0A180884284BF6E
:105A7000023A414440F29B80C0EB01092946484666
:105A8000019200F01DFA29461FFA8BFB0446484696
:105A900000F044FB019A0AFB04F94BEA01418945F5
:105AA0000AD911EB080104F1FF3304D2894584BF00
:105AB000023C414400D81C46C9EB010944EA0244B7
:105AC00067E7C5F12003A94022FA03F82AFA03FB8D
:105AD00048EA010820FA03F30AFA05FA58464FEAA1
